:100000000C9405080C9432080C9432080C943208B5
:100010000C9432080C9432080C9432080C94320878
:100020000C9432080C9432080C9432080C94320868
:100030000C94E1320C9432080C9432080C9432087F
:100040000C9432080C946E220C9432080C943208F2
:100050000C9432080C9432080C9432080C94320838
:100060000C9432080C94B8320C948E320C943208F2
:100070000C9432080C9432080C9432080C94320818
:100080000C9432080C9432080C9432080C94320808
:100090000C9432080C9432080C9432080C943208F8
:1000A0000C9432080C9432080C9432080C943208E8
:1000B0000C9432080C9432080C9432080C943208D8
:1000C0000C9432080C9432080C9432080C943208C8
:1000D0000C9432080C9432080C9432080C943208B8
:1000E0000C9432080C94792A0C948E110C94F21111
:1000F0000C940C2C0C946C210C94E92D0C94FA1299
:100100000C94802B0C941D1F0C949D250C94960F21
:100110000C94441B0C9441280C946C0F0C94CD202F
:100120000C9494210C948E2C0C94D4110C94AF0E3E
:100130000C94FE0F0C9446180C9409100C94EE17B6
:100140000C943B130C94A60D0C94FF130C94A90D66
:100150000C94D5110C94501B0C9411110C94EA21A1
:100160000C9433180C9482320C948E100C94BF179C
:100170000C94C52F0C94A72F0C9411210C942A25B4
:100180000C94A52F0C94430F0C9461130C9414241D
:100190000C94F01C0C94742A0C94BA0D0C94931EBD
:1001A0000C945E250C94372A0C942D260C94161E64
:1001B0000C9462290C94F4250C947D200C94451425
:1001C0000C94BE1F0C94FC280C94A0180C945E2870
:1001D0000C94521C0C949C1B0C945F260C94EA23E8
:1001E0000C9470250C945C0E0C941C220C94131926
:1001F0000C9410280C94582D0C9431190C941A203E
:100200000C940D2A0C94531B0C94F9230C94741524
:100210000C945F240C940C1D0C940F130C94E72485
:100220000C94281D0C94772D0C94E90E0C947E1CD4
:100230000C9497100C9447110C94AD2C0C94CD2871
:100240000C94040F0C94DF2E0C947B190C9459130E
:100250000C94851F0C94242904000400000407005A
:100260000400020000040000000000000004000080
:100270000000040404040004070404000404000053
:100280000000000407070400000400020204040048
:100290000404000404040400000404040002030035
:1002A0000002040000020200040000040004040430
:1002B000040004000004000400000000000000002E
:1002C00001020102B602531B020100018B0F461806
:1002D00003010001B5025E2504040004600FEA2159
:1002E00005020002640F7E1C060001000000441B92
:1002F00007020002B602742A08020002640F851F7A
:1003000009010001B5022A250A030003B202DF2E0B
:100310000B020002B00270250C020002B0023B1377
:100320000D0001000000EE170E080008A8029D2530
:100330000F060006A202111110020002640FCD2860
:1003400011020101860FFA12120300039F028E10A0
:10035000130400049B02802B14010001B5025F26E8
:100360001505000596021A20160300039302F425D2
:1003700017040003660F6C0F180500058E02311973
:1003800019010001B50224291A030002770F582D24
:100390001B080008860245141C020002B002FC285B
:1003A0001D0500038302BA0D1E020002640F8E2C8D
:1003B0001F030002770FF01C20040004800F521C62
:1003C00021040004730F2D26220300039302430F20
:1003D00023030002770F741524030002770FA90D81
:1003E0002500010000008232260600067D02772DDE
:1003F000270001000000501B28010001B5026229FE
:1004000029040004600F61132A0300037A021C22EE
:100410002B000100000033182C04000377021D1F7D
:100420002D0500057202792A2E020002B00213196E
:100430002F030103B202D51130030003790F971087
:1004400031030002770F0C1D320600067D024711B2
:1004500033040003690F0D2A34020102B0020F13A6
:10046000350500056D02040F36020002B002FF13CD
:1004700037010001B502AD2C38010001B502591356
:10048000390800086502281D3A0500056002372A70
:100490003B030002770F960F3C0400035D025C0EE5
:1004A0003D020002640FE7243E030002770FE92DAE
:1004B0003F0001000000BF1740020002640F412806
:1004C000410500055802BE1F42020002640FA01839
:1004D00043030003B2027B1944040004600FAF0E13
:1004E000450001000000D411460005000000282945
:1004F0002A2B2C2D2E2F505152535455565778DA03
:100500009D19D96E1B47F2573A048CDD2C146138C3
:10051000BC15F84197136D2C5B31AD7881C562D065
:100520009A69920DCD9539746CE07FDF3AFAE290CA
:1005300071803560B07BBABAAABAEE2AFD317AE88A
:10054000759E254FAA697555B6A3B3D1364DCFC454
:10055000DF7FBABCFC5ECC4EA7A79178D065DFE9FF
:10056000BCC5AF1FEEC585D97E2FE2D3787E1A4772
:10057000E379348E67A393515A15852C3340F2C723
:1005800048E67995CA4E2595CE5A91567DD9BD7DBE
:10059000938ECEE2E80448761DD04A64FA28E0182B
:1005A000BE0700CBE03CCBEC795DB5F4A3CBB76FD5
:1005B0007A51F7799EF435C14F627FE1F75E35AF2E
:1005C0000E2530F088D08D6ABBA4D3E963CBBBAED7
:1005D00091655BE82EB144852EE1FD86BF31BC23D9
:1005E00057B249DA5DDF65D573393A9BE3D3CA8DDB
:1005F000DE02472FF9643AB324DA5A27BC043E22BC
:100600000F55CABCDA26BA74DC13DBA3B3D9D4C144
:1006100018962D046F132F869983A46FAAD9C7B596
:10062000278269EC8033BDD59DCC93AAEF06179E37
:1006300064DE2BDC676A23FBBC4BDC8742BE24599B
:10064000DFC80E0C80D88C3D9B0AD4D955F51EAE60
:10065000748F78EC89EFB2E974B18C2C70D3268654
:10066000B6B28B6CEA5633B79ABBD5C2AD542E5F87
:100670009DCE401A0B4744C7A925004B90236B150C
:100680004C0D7FC16440DD7C69BE74974A55D5FA34
:1006900045E5039964B29349ABFF0B57773DD87991
:1006A00097A02C025369157CD265C889475A3F1719
:1006B00047E49CBE82F9781C46CABB7E2877F87254
:1006C00020F8B1D73A98D6D07AC67178EAECF3D050
:1006D00018853D4A8A76FBF6CD3FC021E3C9DEDDB1
:1006E00067DDED80F524B506080FF356DE768B55F1
:1006F000ECD4983A35B669FEE8D63A73CBD7324D8A
:10070000F63526D2224B864A9C2C030AAAAEBD4D52
:10071000E33631B695E9C62ED92D09D843F579AB24
:1007200002A4532FB26EA79AA20277A97375442828
:10073000E171D2BDD68ADDD6DB7A57A4BD6C9C3E72
:100740009B97E4C0D744E73EA2B574BA506C6A01E7
:10075000170DCAC38915E49EA9871E4CB0AA016E65
:1007600065B780654BF6C7FA192FEC41A32444BD49
:1007700026530DD2437B66BB8B2DC073A33B750004
:100780008186C602014CAA50CD5695E96B82CE0BEC
:100790004C0059E3C9C9AE2AD441886C65518756CB
:1007A0006BF62E40EE8750E0DD470F7EAF1372A34D
:1007B000B75BD5E02B5A346A90C078EA895380063B
:1007C000A664A79C8480B78D8688096E98B00C4576
:1007D000DAA41C884E465BF04062135E36315B0241
:1007E00002619A7D5FA31E8010EC4D084A5AA098C2
:1007F0008011BA008B6B16F5743500432D5830AF5D
:10080000910924020C304595E9CD6B02EA76B81ABD
:10081000455E254C9E0016F0D438DA8AAFB11AF73F
:10082000E1F15B922BF6E679C480469D07E4C11D99
:1008300075A6CA0E888B6AB3012AE4572E41007B45
:1008400036AAD1339C3CA75170D2D799973567D13E
:100850005D1F9099011A56CA20B51DCF9E40361AC9
:100860005C206DF6411C993980611AFC3FCDADF0DA
:10087000E66682A6DF412ADFC2C59D4A1F83E419CE
:100880002F2C0F83E4E938A82B70E921FD20AAD88A
:10089000FBC762CA9F1416019B7B5CA2F34E085FE4
:1008A000AF8EE56787AE0AF3CC7C61AF0CD28C03C8
:1008B0007742007697161863A44B8FF8720E0BD60A
:1008C0006E769421E1578326C15229C381B12DCC84
:1008D00092EEB3BF0DE98154810AC2846F181417D8
:1008E000A3B3C5010C3D80B2A243B9972281FD3963
:1008F0005F2AD58BE10092807309DD10E2F99481C3
:10090000AC38FE22DDC2FB905DCC93DE3942C35F82
:10091000D9D30E6B88305F9892021C5F05A505B095
:1009200039F657DA6AD33DCB4685770BDD56363B31
:100930001455AB8FA5CD03A4B388915251BAF1964B
:100940001A44027028CEC8DF8A6AF3781FEA78500A
:100950008B51D29C7B130C9D101034561FCE7BE321
:100960009907A0888D46C9315DB8101F047C1033EB
:10097000A03499734FD414D75CD8E3C8042A34B791
:10098000518618B58F1836A01C7BB82ECCC8AAAEDD
:100990001A930ED8FF68EF94AF5E6A0D2A0972CFE2
:1009A00064E2300D5E1100CD811CC7C963EEE94DD4
:1009B0007B3EFF6AB33C7638E75797C9EDF9BF3005
:1009C0002462757571BF4EEE6E3EACB1BE822EEAEA
:1009D000EE6272727711C3FFF12838EC9EE9F02ABB
:1009E0003AB9BBC283CBF71F2F7F49DE7DBAFE1514
:1009F0002519D1BF93D1EDE53D40C9AE505B19CF6C
:100A0000E61100DE7DB9656A3106D84FD797D73732
:100A1000BF5D275F6E3E5C7DFC82BE1CE3C7F5F5C3
:100A200027F8C85CA846CB1C695D03AD6BA405A77D
:100A300037E7EF938BF3FB2B94F12C4652EBCFE788
:100A40009FD7C9FAFE76FD2B9CACAF9100BE5395A3
:100A50003D1411549A523F676A6D5CD21B2280018B
:100A60009BC6FDDD79343AFB7774B2FC0FB0798117
:100A7000EB25AF2F710DF6419B2BDC4067419B6B43
:100A8000DC40E7469B77B8999AFB3FD1C620F8191E
:100A9000373383E09FB859983BBF101973E73D6D1A
:100AA000F0CE577626C328690219C514A5D1981A25
:100AB000A8BA129D19F50952F38693083BC7798E9F
:100AC000D6FA2A6C4592715971294B51569D00B343
:100AD00015E8FA02A210871E41D6279E771AD66C17
:100AE00045ADA8C10F801277BBF66EDF22300875C6
:100AF0002C36552340A13FDABD6EF134A3EFF4C983
:100B0000942970F56F1D466C28B7B7C010D4B0B2E9
:100B1000436869D89469A79F14BBAD016E11148D09
:100B200097FD88BF527027D4C0A92A85ADBFDD7D4F
:100B3000309F4BEEDE452D1B301EA19AA66A289EE3
:100B4000DB8346418E693B6AD1DF49786F26BA4A1A
:100B500090CF635346AECA05F94D095EA333619B3E
:100B60005CDF737322E2B2DB4299B101F5BCFE1B7C
:100B700080212BB25090C5B881B18745F5A42C37A0
:100B800002DB372E32EDB16BF65C7BC715F0C1B9D5
:100B9000298E1C7D6C502C1008506093C06D97FD01
:100BA0008A5D998D00586404DF31A4F5B567B9E515
:100BB000786721F60A8974A76B831DC706B7F2050B
:100BC000CD7069E5C5D5DF2DF4B172AB04D4F190D9
:100BD00034AC3EF040B7682C2D543D599F631F0143
:100BE0009731770A13BEC8AED5934241E33CE3CFB9
:100BF0002FEC6493912D1B688C97B7285DAA26046F
:100C0000AC9A4D5E3D7367FA018C580A7E0E7A0FDE
:100C1000B93F16E5E10198351F60620B0F745973F7
:100C2000D6E6444A472572EA3FC714E69C71D74D81
:100C3000B5056116C0BAC4B76D203D0297206C851A
:100C40007E8945CF27651E85B6888E036450D4A063
:100C50000634542C85D70EE0403AE259E739648DCA
:100C600014F0ED35E35C1CF99B4E42DFB88173A8AC
:100C7000353819EB901840085DF485FD666D1F64EA
:100C8000B9B6CD3BF510808CDC92428C1B3B2142E7
:100C9000E3A75D55898DA4D7F1CB7044F33934A90E
:100CA00023E16C350041A9022E9A427035F7994430
:100CB00086C821A7B68ABAD5FBB2ED6BCCAB8ADD6C
:100CC0009A622936955F6497EEB26ACB82FE8E7B7C
:100CD000071AF341FDDD978F80186302F7B2C1F761
:100CE000D61FF8110307A4AACC21863DC1B17CC848
:100CF0006D6872EFE74E4A983281CBC44147762641
:100D00003E42708454F580997D834D79FB1DF76ECA
:100D100034777471D24C23336E605AECAB4A88003E
:100D20006C33291C9345B94A8642070926970D0A58
:100D3000132BE42335022A8CCD1B272A269CB2F3E1
:100D400060010AA9E760EA80B90712F964BC9CCD8A
:100D5000203B9DD8CD9C5A3ADECC67A47DD8CCE709
:100D60000B584FBE7EA502BD86E0A078BC6A9AAF44
:100D7000B0CC6B312296A91AB4784B54C7B15ECD72
:100D8000B712A6D7B17514D7E121B6879E9C8F6E96
:100D90006DF4A6C2DF5C0733542CB897A01FD7F3BD
:100DA000ED35F98CF158E7B20CA6B77B3764D0D09B
:100DB000093A31AFC12112F527BE5E5CB8E90BE4F8
:100DC00046331EA0F7D11801BF59A3A2321DA25A63
:100DD000C8F682AC92DAC46F316D6E9845E2A9AF65
:100DE000C67E74D3826BB949CC62E9071F7B8877D2
:100DF00015F48ADB4312E15C055E1AF949426295FB
:100E0000EFCB57DE1BA1CCFCB02000755303368618
:100E1000530445A45E1E625819199184C305F32A30
:100E20006B647D9AD280152737800C488573AC059A
:100E3000F67F3EB6D97EFF389578BFF5F9AB474EC1
:100E4000A8906B3AAAAC16119775AD574CDB17E614
:100E5000A7FD9D1530F1CDCCA0D3E1510894878B2F
:100E6000D5C047F79F7BD4707B8EA1AC251F348EF5
:100E7000F08F8D0FF1BE0A3B1A6F09A974EDD5D121
:100E8000E95960E44BEA52A884DBE9ED8E2CD17B72
:100E9000C0140284F91B0ED4FC4FD1E9383A8D7E80
:100EA00088A7D31FB6E3D9662397B3D5E8EBFF0035
:100EB0000DAFAF9FB60900002000230026002900D7
:100EC0002C002F003200000100000301060109017F
:100ED0000F470044004500800135480044004500AC
:100EE00020010D88008000810080000E8A008000B3
:100EF000810020000F8C008000810008000CB300EE
:100F0000B000B10080033EB400B000B10020032364
:100F10009800900091008000249A00900091002099
:100F200000259C009000910008003BA800A000A1B3
:100F30000080003CAA00A000A10020003DAC00A061
:100F400000A10008005B28012001210180005C2A2B
:100F5000012001210120005D2C0120012101080058
:100F60000400000004040404070402070400000253
:100F70000404020400000404070400020404040042
:100F8000040400040401070400040200000000003F
:100F90000000060002025B1704600F5A0A02640F89
:100FA000594002770F584003660F574003690F56A8
:100FB0001C076C0F554002770F541404730F5340F5
:100FC00002770F521003790F5111047C0F50110456
:100FD000800F4F0D02840F4E0B018B0F4D40018689
:100FE0000F4C1204870F4B0B018B0F4A10028C0F12
:100FF0004915038E0F004002910F480E02930F47D0
:101000000901950F46060000000011241FBECFEF16
:10101000D1E2DEBFCDBF00E00CBF14BE0FB6F89426
:10102000A8958091600088618093600010926000B4
:101030000FBE12E0A0E0B2E0ECE3F7E600E00BBF89
:1010400002C007900D92AA32B107D9F723E0AAE2B5
:10105000B2E001C01D92A539B207E1F70E949F23BB
:101060000C949C330C940000CF93DF93CDB7DEB784
:1010700065970FB6F894DEBF0FBECDBF0E948C23DC
:101080006B017C0180912602882309F4E0C30E9451
:101090008C23C61AD70AE80AF90AF8948091260226
:1010A000882351F08FEF8093260278940000F89403
:1010B000809126028111F9CF78940E948C23A70198
:1010C0009601260F371F481F591F288B398B4A8BD3
:1010D0005B8B81E08093260280915302882309F480
:1010E00040C0109253028FEF89838E010F5F1F4F14
:1010F0006EE575E2C8010E947B267C01892B89F18F
:10110000D70156968C9182FFF3CF0E948C23F894DE
:10111000F70137892689422F4B7F468B78949F931E
:101120008F937F936F931F923F9321701F922F9302
:1011300089811F928F9328EC3FE03F932F930E9469
:10114000DA158DB79EB70C960FB6F8949EBF0FBEFA
:101150008DBF6EE575E2C8010E947B267C01892B5C
:1011600079F680915402882311F1109254028FEF86
:1011700089838E010F5F1F4F6FEF73E1C8010E94DB
:101180007B26FC01892B99F0958D868D9813F4CFE1
:10119000F894858D968D891709F4ACC378946FEF18
:1011A00073E1C8010E947B26FC01892B69F78091BD
:1011B0003702882309F454C0109237028FEF8B87CF
:1011C0005FE0B52E63E47FE0CE010B960E947B26A4
:1011D0001C01892B09F444C0D10157968C91579773
:1011E00080FFF0CFF894F1014480558066807780CD
:1011F00087898E7F878B789456968C91813009F4FD
:10120000D2C208F4AAC2823009F467C28330D1F690
:10121000AB8419861A869E01275F3F4F42E061E04A
:10122000F101848995890E94951489849A8498246F
:1012300089249824740100E010E0B101605F7F4FC1
:10124000C12CA3019201C1010C960E94A60F82FE3F
:10125000B9CF809127028111B5CF8CE10E947B32FA
:1012600080915802882399F1109258028FEF8D8354
:1012700092E0D92E2DE2E22E38E0F32E6EE87CE2E9
:10128000CE0105960E947B268C01892B01F1D801A5
:1012900052968C9182FFF2CF80FF14C0C8010E9449
:1012A000C82FF801D28AE982FA829E012F5F3F4F50
:1012B00042E060E0848595850E949514C8010E94F3
:1012C000082EDCCF6D81C8010E94272ED7CF8091D8
:1012D0004E02882301F110924E028FEF89838E0116
:1012E0000F5F1F4F6EE77CE1C8010E947B260097CD
:1012F00091F0DC0158962C912F3FA1F7F894FC0156
:101300002685211184C278946EE77CE1C8010E9491
:101310007B26009771F780914F02882309F43FC024
:1013200010924F028FEF89838E010F5F1F4F6EEB7C
:101330007FE1C8010E947B26009789F1DC011E969F
:101340002C911E9723FFF3CFF894FC012685277F6D
:10135000268778949C01265E3F4F3F932F935096AB
:101360008C918695869586951F928F9389811F9281
:101370008F93E0EAFFE0FF93EF930E94DA154DB7F9
:101380005EB7485F5F4F0FB6F8945EBF0FBE4DBFAC
:101390006EEB7FE1C8010E947B26009779F6809171
:1013A0005002882309F44AC0109250028FEF8983BB
:1013B0008E010F5F1F4F86E9E82E8FE0F82E6CE15B
:1013C00072E2C8010E947B26FC01892BB9F1848D51
:1013D00080FFF5CFF8949481258136814781548927
:1013E00065897689A789B08DD18CC28CB38C848DA8
:1013F0008E7F848F7894BF92CF92DF92BF93AF930A
:101400007F936F935F934F933F932F939F93898124
:101410001F928F93FF92EF920E94DA158DB79EB7BD
:1014200040960FB6F8949EBF0FBE8DBF6CE172E27E
:10143000C8010E947B26FC01892B49F6A895809162
:101440007102882329F080E4809360001092710279
:1014500010913203112309F46DC000912A0200FD9E
:1014600012C0153008F466C0D0907202FD2C8BEFCC
:101470008D0D8C3308F412C2EEE7FE1609F45CC23F
:10148000016000932A02412F50E06EE770E082E78E
:1014900092E00E946D33009739F00E7F00932A028C
:1014A0008257924011E0180F01FD0CC0902F9260FE
:1014B00090932A0289EE94E09F938F930E94DA150D
:1014C0000F900F90D12ECC24CA9480E00D2D10E007
:1014D00018C090E04E2D50E0481B590BB801680F22
:1014E000791F6E587D4F8E589D4F0E948333109206
:1014F00026028E2D9FB7F89420913203F21661F0E8
:101500009FBFF0903203EF2CED1819F79FB7F894B6
:1015100020913203F212F4CFE09232039FBFF1E048
:10152000CF1208C089EE94E09F938F930E94DA1542
:101530000F900F900E948C236B017C0128893989C0
:101540004A895B89621B730B840B950B8090330275
:1015500090903402A0903502B09036023FEF831A8B
:10156000930AA30AB30A8092330290923402A092A3
:101570003502B092360240902F02509030026090B7
:10158000310270903202460E571E681E791E40923C
:101590002F02509230026092310270923202611535
:1015A000710541E08407910508F056C19B01AC012B
:1015B0000E94EC32DC01CB0181509F4FAF4FBF4FF7
:1015C000892F9A2FAB2FBB2740912B0250912C02D1
:1015D00060912D0270912E02840F951FA61FB71FD8
:1015E00084179507A607B70718F48FEF9FEFDC0164
:1015F00080932B0290932C02A0932D02B0932E0285
:1016000040914A0250914B0260914C0270914D0200
:101610005C546B437B4F2F2DC416D506E606270B73
:1016200027FD30CDBF93AF939F938F937F926F929F
:101630005F924F92BF92AF929F928F9280EF9FE006
:101640009F938F930E94DA158DB79EB70E960FB6B3
:10165000F8949EBF0FBE8DBF80914A0290914B02BD
:10166000A0914C02B0914D02C816D906EA06FB06BD
:1016700098F48091460290914702A0914802B0915F
:1016800049020196A11DB11D809346029093470225
:10169000A0934802B0934902C0924A02D0924B02F2
:1016A000E0924C02F0924D0210922B0210922C020A
:1016B00010922D0210922E0210922F0210923002E0
:1016C00010923102109232021092330210923402C0
:1016D0001092350210923602D5CCAB8481E089831A
:1016E0001A821B821C829E012F5F3F4F43E061E004
:1016F000848995890E94951469817A818B819C8166
:101700000E94FC32272F382F492F55272C873D87E1
:101710004E875F8737E039831A829E012F5F3F4FE4
:1017200042E061E0D10154968D919C9155970E94C1
:101730009514EC84FD840E851F8500271127B101C7
:10174000605F7F4FCA80A3019201C1010C960E9485
:10175000A60FBC85B0FF36CD7CCDAB841D821E822A
:101760001F8218869E012B5F3F4F44E061E0F1012C
:10177000848995890E9495146D817E818F819885D9
:101780000E94FC32D62EF72EB101605F7F4FC12C34
:10179000ED2C8C01A3019201C1010C960E94A60FB1
:1017A000D2FE10CD56CDAB84FCE0F9831A821B82A9
:1017B0001C829E012F5F3F4F44E061E0D1015496AF
:1017C0008D919C9155970E94951469817A818B81A6
:1017D0009C810E94FC326B017C01B9821A829E01BD
:1017E0002F5F3F4F42E061E0F101848995890E94BB
:1017F0009514870176011127B101605F7F4FCA8080
:10180000A3019201C1010C960E94A60FDBCC318D81
:10181000308F7894AC01415F5F4F5F934F931F927D
:101820002F93FC0187891F928F9389811F928F9339
:1018300025EA3FE03F932F930E94DA158DB79EB7BC
:101840000A960FB6F8949EBF0FBE8DBF4BCDC88AC7
:10185000D98AEA8AFB8A3DCC6115710550E185077A
:10186000910508F0C2CE8B019C0101501F4F2F4FF4
:101870003F4F5527432F322F212F0E94EC32DC019E
:10188000CB0140912B0250912C0260912D0270915E
:101890002E02840F951FA61FB71FA2CEE0907302E1
:1018A0008E2D807F803109F0E7CD1D1508F442CEE2
:1018B0008D2D90E0FC01EF58FD4F20812E3709F06F
:1018C000DBCDDC01A159BD4F1D01FC01E059FD4FED
:1018D00090818C91292F30E05901B82A6DEF6D0D60
:1018E00082E792E00E94A223A816B90639F1F0908F
:1018F0007202C2CD548965899089218932894389D0
:101900008F5F858F78946F935F934F933F932F935F
:101910009F9389811F928F93A3ECBFE0BF93AF93F6
:101920000E94DA152DB73EB7265F3F4F0FB6F894E9
:101930003EBF0FBE2DBF20CC11E0C4CD802F8D7FC8
:1019400080932A0280910102E812FEC081E08E0D90
:101950008F70806180930102B4E72B16B2E03B06E2
:1019600009F008F4BAC0E4E7F2E0ADB6BEB68F0104
:101970000F5F1F4F2081222309F4E3C0E8EEF4E05B
:101980008491281708F0DDC030E0220F331F220FAA
:10199000331F220F331FF901E754FD4FE4914DB778
:1019A0005EB784E0E89F4019510911240FB6F894FE
:1019B0005EBF0FBE4DBF8DB79EB70196F901E554CE
:1019C000FD4F4491F901E454FD4F65917491FB0181
:1019D000640F711DAC01BD86AC869D8B8C8B6E1720
:1019E0007F0709F47FC02016310638F1A491A53095
:1019F00038F1A73011F52801BFEF4B1A5B0AD80167
:101A00006C908201060D111D20163106B0F0862C57
:101A1000912CA12CB12CDA018D929D92AD92BC92A9
:101A20001397612C712C14964D925D926D927C925D
:101A30001797485F5F4F3196D2CF87E00E947B3285
:101A40007A0194E0E90EF11C5801AFEFAA1ABA0A24
:101A5000D8011C91912F9F77492E512C612C712C0C
:101A6000012F0076003691F117FF3AC085010F5F14
:101A70001F4FD80111978C91440C551C661C771C84
:101A8000440C551C661C771C440C551C661C771CAA
:101A9000440C551C661C771C440C551C661C771C9A
:101AA000440C551C661C771C440C551C661C771C8A
:101AB000982F9F77492A87FDDACFDA014D925D9200
:101AC0006D927C921397A701319689CFB0EE4B2A85
:101AD00055245A94652C762CC7CFCC24C394F5CCCE
:101AE0008501EBCFAC84BD848C899D894091270210
:101AF000442331F0F901E654FD4FE491E0FF11C0B9
:101B000022543D4FF90125913491F90119950FB6F1
:101B1000F894BEBE0FBEADBE02151305F0F6F80177
:101B200024CF809128021F928F93EFEFFFE0FF9365
:101B3000EF930E94DA150FB6F894BEBE0FBEADBE8D
:101B4000EBCF85E00E947B321D2DB4CC81E20E9458
:101B50007B32CF93DF93EC016FEA7EE088810E94B5
:101B6000C526488559856C81FC018081DF91CF9124
:101B70000C94B11A2F923F924F925F926F927F9284
:101B80008F929F92AF92BF92CF92DF92EF92FF928D
:101B90000F931F93CF93DF9300D01F921F92CDB767
:101BA000DEB77C012DB73EB73D832C836FEA7EE024
:101BB000DC018C910E94C5269B838A83F701F48106
:101BC000F983D70118966D907C9019971C968D918A
:101BD0009D910D90BC91A02D80FD6BC01C012D012D
:101BE0005694479437942794F701E088F188C22CE3
:101BF000D12CF9810F2F10E0C8018C0D9D1D2DB740
:101C00003EB7281B390B0FB6F8943EBF0FBE2DBF51
:101C10008DB79EB701965C01A801B3010E947A338B
:101C20004501800E911E8401222DA3016981AA81A4
:101C3000BB818C910E94271AC114D10499F0CE0C5B
:101C4000DF1CF4019601D7018D917D018095908173
:101C500089238083D9019D919D01892B8193CE1485
:101C6000DF0489F76981620DA501EA81FB8180812A
:101C70000E94B11AEC81FD810FB6F894FEBF0FBE31
:101C8000EDBF0F900F900F900F900F90DF91CF91BD
:101C90001F910F91FF90EF90DF90CF90BF90AF908A
:101CA0009F908F907F906F905F904F903F902F907C
:101CB00008958FE10E947B32AF92BF92CF92DF9264
:101CC000EF92FF920F931F93CF93DF93CDB7DEB7C1
:101CD0007C01ADB6BEB6FC01C0806FEA7EE08C2D03
:101CE0000E94C526F701648140855185D4842DB7B3
:101CF0003EB72D1931090FB6F8943EBF0FBE2DBF68
:101D0000EDB7FEB731967F018F012D2DFC0180814B
:101D10000E94271AFF92EF921F92DF921F92CF929A
:101D200084EB9FE09F938F930E94DA152DB73EB707
:101D3000285F3F4F0FB6F8943EBF0FBE2DBF0FB6C2
:101D4000F894BEBE0FBEADBEDF91CF911F910F9133
:101D5000FF90EF90DF90CF90BF90AF900895EF92FB
:101D6000FF921F93CF93DF93EC018C85182F1F7781
:101D700041E050E06FEA7EE088810E949F267C016E
:101D80008C819D81AE81BF81892B8A2B8B2BF1F4B5
:101D90008091BC0082FD10C061E089E10E943A227E
:101DA00061E088E10E943A221092B90088E48093B1
:101DB000B80084E08093BC00812F880FF7018083F6
:101DC000DF91CF911F91FF90EF9008958FE20E94D5
:101DD0007B32FC011092260281E0809337028789D2
:101DE0008160878B4481558166817781808591856B
:101DF000A285B385840F951FA61FB71F8483958383
:101E0000A683B78381E008950F931F93CF93DF9349
:101E10008C0163E47FE0FC0180810E94C526EC0117
:101E20000E94C82FF80184819581A681B7818C8397
:101E30009D83AE83BF8380859185A285B385888786
:101E40009987AA87BB87892B8A2B8B2B29F4DF9153
:101E5000CF911F910F91089584859585A685B785AB
:101E60008C879D87AE87BF8780899189A289B38936
:101E7000888B998BAA8BBB8BCE01DF91CF911F9161
:101E80000F910C941A30FF920F931F93CF93DF930F
:101E9000EC01F88483E08F15E0F048E150E063E462
:101EA0007FE088810E949F268C0189EE9EE0F801E8
:101EB000938382836BE373E18C810E94C526F801D2
:101EC000958B848BF68ADF91CF911F910F91FF90B4
:101ED00008958EE10E947B32CF92DF92FF920F93A2
:101EE0001F93CF93DF93EC016BE373E18C810E942E
:101EF000C5266C01F8840F2D10E0A8014D5F5F4FDF
:101F00006CE67FE088810E949F26FC01D182C0821E
:101F1000F2826C857D85A8010396DF91CF911F9198
:101F20000F91FF90DF90CF900C947A33CF93DF9393
:101F3000EC016BE373E188810E94C5262885398511
:101F40004C8160E0DF91CF910C9495144F925F9299
:101F50006F927F928F929F92AF92CF92EF92FF9269
:101F60000F931F93CF93DF93EC014B0127013801AF
:101F70001F92CF927F926F925F92EF925F934F93F7
:101F80003F932F931F92AF9289EB9FE09F938F9384
:101F90000E94DA158DB79EB70E960FB6F8949EBFC5
:101FA0000FBE8DBF88819981AA81BB81E816F90691
:101FB0000A071B0750F0F40180819181A281B3814F
:101FC0008E159F05A007B10720F480912702882372
:101FD00079F0DF91CF911F910F91FF90EF90CF900B
:101FE000AF909F908F907F906F905F904F900895EB
:101FF0008DE10E947B328BE10E947B32FC01928951
:102000009460928B1092260281E08093580280E0C7
:1020100008950F931F93CF93DF93FC01A189B28999
:102020008D919C911197928B818B16968D919C919D
:102030001797C085D185228521113FC02FB7F8940D
:10204000AC015527598348832FBF20913802309126
:10205000390211963C932E93B0933902A093380223
:10206000A189B289109759F527853089821793077E
:1020700041F083859485A585B6850097A105B105B6
:1020800031F480E0DF91CF911F910F910895448149
:10209000558166817781840F951FA61FB71F8483A2
:1020A0009583A683B78386EA9DE09383828381E04C
:1020B000DF91CF911F910F9108958883C6CF12961B
:1020C0004D915D916D917C9115972785308982178F
:1020D000930741F083859485A585B6850097A10572
:1020E000B10551F4448355836683778381E0DF91A2
:1020F000CF911F910F910895048115812681378119
:10210000800F911FA21FB31F2B2F84179507A607BF
:10211000270B27FFE7CF80E20E947B32FC0144813E
:10212000558166817781208580810C944127EF92CB
:10213000FF920F931F93CF93DF937C0161E171E1D5
:10214000DC018C910E94C5268C010E94A315EC0134
:10215000F70184819581A681B7818A839B83AC83B3
:10216000BD83808591859F838E83F8941982188220
:10217000D80151968D919C915297892BB9F1539624
:10218000ED91FC915497D183C0835496DC93CE9308
:10219000539780E090E07894892B39F4DF91CF91C8
:1021A0001F910F91FF90EF900895C8010E94C82FD2
:1021B000D80112968D919C911397865A9D40F1F00B
:1021C0008A819B81AC81BD8129E030E1F8013383B4
:1021D000228384839583A683B783C801DF91CF913F
:1021E0001F910F91FF90EF900C941A30F801D48B4F
:1021F000C38BD28BC18B81E090E0CDCF8A819B8154
:10220000AC81BD81F8014481558166817781272F9A
:10221000481759076A072B0B27FFD6CF80E20E9489
:102220007B32CF92DF92EF92CF93DF93EC01488520
:1022300059856A857B852C858C810E9441276B019D
:10224000E82E45E150E061E171E188810E949F261E
:10225000FC01C086D186E28688899989908B878720
:102260008C899D89AE89BF8983879487A587B68726
:1022700089E090E19383828368E070E0CF0141962A
:10228000DF91CF91EF90DF90CF900C942727DF92D2
:10229000EF92FF920F931F93CF93DF93EC01D888B7
:1022A00083E08D15B0F16BE373E188810E94C52650
:1022B0007C018AE090E00E94B7158C0161E08C817E
:1022C0000E94FC1AF80160837183828360E0888534
:1022D0000E943A22F80163837483858360E08C85D1
:1022E0000E943A22F801668377838087D186F701BE
:1022F0008581982F967081F4F701118300838260A5
:102300008583DF91CF911F910F91FF90EF90DF9028
:1023100008958BE10E947B320E94FB0F0F931F9365
:10232000FC01A489B58986898C9393A181E08927D2
:1023300083A3448155816681778180FF12C0008527
:10234000118522853385400F511F621F731F82FD47
:1023500012C0448355836683778381E01F910F9178
:1023600008950485158526853785400F511F621F06
:10237000731F82FFEECF0089118922893389872F4D
:10238000401751076207830B87FDE3CF82EF91E18E
:1023900093838283B901A80144835583668377833D
:1023A00081E01F910F9108950895FC018081A4811F
:1023B000B58140855185628573859FB7F8948130DA
:1023C00061F0823019F04C939FBF08954D935D9357
:1023D0006D937C9313979FBF089511965C934E93D2
:1023E0009FBF08958F929F92AF92BF92CF92DF923C
:1023F000EF92FF921F93CF93DF93EC01EF8CF8A045
:10240000E114F10409F4F0C0F7018081918198A3EF
:102410008F8F86809780A084B18411E0811491040D
:10242000A104B10409F4A1C06C897D898E89412F72
:102430000E94351B8091380290913902F7019183F7
:102440008083F0923902E092380281149104A10451
:10245000B104E9F08B8D9C8DAD8DBE8D88169906EB
:10246000AA06BB06A0F44F89588D698D7A8D411557
:1024700051056105710509F45BC08C819D81AE81B8
:10248000BF81480F591F6A1F7B1F166022C08BA196
:1024900031E081149104A104B10409F068C084FB07
:1024A000992790F921E09227391709F443C04F8901
:1024B000588D698D7A8D4115510561057105D1F1F0
:1024C0008C819D81AE81BF81480F591F6A1F7B1F80
:1024D0001460EF8DF8A1309709F077C02BA1488BDD
:1024E000598B6A8B7B8B2071212B2BA311FF5FC033
:1024F000880D991DAA1DBB1D12FD52C02EE831E1A9
:102500003B832A838C839D83AE83BF838886998691
:10251000AA86BB868B8D9C8DAD8DBE8D8819990941
:10252000AA09BB098C879D87AE87BF8781E011C050
:1025300012608BA1EF8DF8A13097D9F4188A198A0F
:102540001A8A1B8A8071812B8BA3812F827011FDC7
:1025500034C0DF91CF911F91FF90EF90DF90CF902B
:10256000BF90AF909F908F90089510E05DCF30E0C6
:1025700096CF4281538164817581488B598B6A8BD8
:102580007B8B8071912F9460892B8BA311FF0FC0DF
:102590008C819D81AE81BF81880D991DAA1DBB1DB7
:1025A0002B2F84179507A607270B27FDA7CF4C8352
:1025B0005D836E837F8381E0CCCF40E050E0BA0141
:1025C0008C819D81AE81BF8193CFC280D380E48016
:1025D000F580872F4C155D056E058F0987FD07C0B7
:1025E0008BA1B701A601C9CF85E10E947B3283E1AF
:1025F0000E947B32FC0185818F9384818F9380813F
:102600001F928F938CED9FE09F938F930E94DA151A
:102610000F900F900F900F900F900F900895DC0186
:102620002C911496ED91FC9115973FB7F8942130B9
:10263000E9F02230B1F0808190E0A0E0B0E03FBF4F
:10264000BF93AF939F938F9387ED9FE09F938F935B
:102650000E94DA150F900F900F900F900F900F902F
:10266000089580819181A281B381E9CF8081918198
:10267000A0E0B0E0E4CF0F931F93CF93DF938C01E2
:1026800046E050E06BE373E1FC0180810E949F26ED
:10269000EC0161E0F80184810E943A226A837B8325
:1026A0008C838D8181608D83DF91CF911F910F91FC
:1026B000089546E050E06BE373E1FC0180810C94E7
:1026C0009F268F929F92AF92BF92FF920F931F937C
:1026D000CF93DF93EC016BE373E188810E94C52601
:1026E0008C01F88483E08F1508F484C0F80185819B
:1026F000867009F07FC08C849D84AE84BF848C81F9
:102700009D81AE81BF81892B8A2B8B2B09F074C0F0
:10271000EAEBFEE0A591B49111968C9180FD04C086
:1027200060E088E00E943A2260E089E00E943A225C
:1027300060E08AE00E943A2260E08BE00E94FC1A8E
:1027400080E58CBD1DBC8114F2E19F06FAE7AF065F
:10275000B10408F041C0811489E098068DE3A80611
:10276000B10418F5E0E88E16E4E89E06EEE1AE0648
:10277000B104C0F5F0E48F16F2E49F06FFE0AF0667
:10278000B10468F580E2881681EA980687E0A80619
:10279000B10458F590E0E0E98E16E0ED9E06E3E026
:1027A000AE06B10428F583E002C090E080E0CF2DB2
:1027B000CC0FCC0FC065C82BF801C08391838581F5
:1027C00084608583DF91CF911F910F91FF90BF901F
:1027D000AF909F908F90089591E080E0E8CF90E0D7
:1027E00081E0E5CF91E081E0E2CF91E082E0DFCFD0
:1027F00082E0DDCF0E94FB0F8CE20E947B32CF9300
:10280000DC0114969C91149720E030E0C22FF9016E
:10281000E251FB4FE4919E1741F02F5F3F4F203173
:102820003105A1F78BE20E947B3287E980937A0021
:102830002830E8F420917E0081E090E00C2E01C069
:10284000880F0A94EAF7822B80937E004FE150E0D4
:102850006FEF73E18C910E949F26FC018FE594E25B
:1028600093838283C28F81E0858FCF9108952091D9
:102870007D003C2F377081E090E001C0880F3A95D1
:10288000EAF7822B80937D00E1CF0F931F93CF93C4
:10289000DF938C016FEF73E1FC0180810E94C526FC
:1028A000EC010E94C82F909100028A8D981303C0FA
:1028B0008FEF80930002F80184819581A681B78112
:1028C000888B998BAA8BBB8B8C839D83AE83BF83B4
:1028D00080859185A285B3858C879D87AE87BF87CC
:1028E00084858E8F91E0980F9D8F408951896289F0
:1028F0007389488759876A877B87248935893F8B05
:102900002E8B208D318D398F288F948D9C8F811146
:1029100005C0DF91CF911F910F910895CE01DF91F6
:10292000CF911F910F910C941A308F929F92AF927A
:10293000BF92CF92DF92EF92FF920F931F93CF93AC
:10294000DF934C01E62E142F6901DC0115968C9162
:102950001597982F967009F462C081FD6DC0F4013F
:10296000908181819CBD8DBDD40115969C91159758
:1029700090FD71C091FF7AC0D401CD91DC91AA2461
:10298000AA94A10E1123A9F1B12CBFEFAB1ABB0A77
:10299000AC0CBD1CF601F08008E010E0898580FFDA
:1029A0007AC0EE81FF81888580834F2D40786B81CE
:1029B0007C818D810E94351BFF0CEE81FF81888513
:1029C0008083110FE881F98190818A81892391E0C8
:1029D00009F490E0192B015009F7EE2011F0D6010F
:1029E0001C93BFEFCB1ADB0ACA14DB0499F6F4017F
:1029F000958190FF14C0D40112966D917D918C91B8
:102A000041E0DF91CF911F910F91FF90EF90DF9008
:102A1000CF90BF90AF909F908F900C94351BDF911B
:102A2000CF911F910F91FF90EF90DF90CF90BF90CB
:102A3000AF909F908F900895ED91FC9141854270E9
:102A40006681778180850E94351BD40115969C9103
:102A5000159790FF8FCF12966D917D918C9140E0EC
:102A60000E94351BF401958191FD86CFEE2071F116
:102A70008FEF810F112309F4BCCFF60190819EBD29
:102A80000DB407FEFDCF9EB591938150B8F7D401E8
:102A900015969C91AECF4F2D40786B817C818D81B6
:102AA0000E94351BFF0CEE81FF8188858083110F0A
:102AB000E881F98190818A81892391E009F490E08D
:102AC000192BEE81FF818885808385CFF6019601E1
:102AD000210F311D2E173F0709F489CF81918EBD3B
:102AE0000DB407FEFDCFF6CFFF920F931F93CF9348
:102AF000DF93EC0118816BE373E1812F0E94C526FF
:102B00000C81F884C9852F2D3C2F402F61E00E9455
:102B10009514CF93FF921F920F931F921F938EEBEA
:102B20009FE09F938F930E94DA158DB79EB708960A
:102B30000FB6F8949EBF0FBE8DBFDF91CF911F914E
:102B40000F91FF9008952FB7F894809138029091DB
:102B50003902009749F0FC014081518150933902BC
:102B6000409338022FBF08958FE00E947B32CF93AD
:102B7000DF93C0913B02D0913C02AE01480F591F38
:102B80002DB73EB721503F4F22273A9524173507DE
:102B900070F050933C0240933B02AC0160E070E067
:102BA000CE010E949533CE01DF91CF91089581E14E
:102BB0000E947B322F923F925F926F927F928F9210
:102BC0009F92AF92BF92CF92DF92EF92FF920F93BC
:102BD0001F93CF93DF93CDB7DEB728970FB6F89446
:102BE000DEBF0FBECDBF80913A028823C1F0289688
:102BF0000FB6F894DEBF0FBECDBFDF91CF911F910E
:102C00000F91FF90EF90DF90CF90BF90AF909F908B
:102C10008F907F906F905F903F902F90089581E00C
:102C200080933A028E01015E1F4F209194035090D1
:102C300093032515C0F4452D50E0CD8CDE8C3FEF7D
:102C4000C31AD30AF60184913A01680E711CC301BC
:102C50008136910554F1821B91098136910560F00E
:102C600010923A02C4CF109293031092940340E062
:102C700050E0512C20E0E1CF109293036091940337
:102C8000561AE52CF12C70E06D5C7C4FA70183E3B4
:102C900093E00E94833310929403509293038091A7
:102CA000C10080628093C100A7019A012D5C3C4F56
:102CB0007901F601A491A63008F42BC1AA2EB12CFB
:102CC000F3E0AF1AB108A20EB31EED8DFE8D329661
:102CD0009491ED8DFE8D3396C590D4902D5F3F4F2E
:102CE0003E832D83ED8DFE8D8491D70112968C93BA
:102CF0003601690E711C78866F826F807884C614E5
:102D0000D70409F435C18D809E80A814B90448F019
:102D1000F6018491853009F4BFC008F441C08830C1
:102D200018F086E00E947B32F80120813181F501A4
:102D30006D807E80E619F709AF01FF0F660B770BF8
:102D400049835A836B837C83A901330F660B770B0E
:102D500069807A808B809C8064167506860697064B
:102D600008F4C8C06D807E802FEF621A720AAD81B0
:102D7000BE814C931801B4E02B0E311CF801228166
:102D800033818A01B901863009F4B7C0C3010E94BA
:102D90007A334301800E911E9E828D828101A6C0EE
:102DA000823008F4AEC0833009F4D8C0F801408105
:102DB00051813A01812C912C0E5F1F4FD401C30128
:102DC0008096A11DB11D80389105A105B10508F4BB
:102DD000C2C0A4019301305F4F4F5F4F21153044B3
:102DE0004105510508F43FC0D401C301189600976E
:102DF000A042B10540F1A40193015C5F21153105AA
:102E00004105504180F0D401C3015CE1B695A7951E
:102E1000979587955A95D1F78068AD81BE818C933F
:102E20001196BE83AD83D401C30145E1B695A79544
:102E3000979587954A95D1F78068AD81BE818C932F
:102E40001196BE83AD83D401C3013EE0B695A7952C
:102E5000979587953A95D1F78068AD81BE818C931F
:102E60001196BE83AD83ED81FE813196D401C301FD
:102E700027E0B695A795979587952A95D1F780680D
:102E8000AD81BE818C939F012F5F3F4F3E832D8389
:102E9000462D4F7740832AC098012E5F3F4FF8019F
:102EA000A081B1818D819E8101966C91662399F0FC
:102EB0008A159B0580F4FD01319604C0A816B90659
:102EC00009F447C00196AC0141505109DA016C93F5
:102ED00061916111F3CFAC016D807E804619570975
:102EE0004150D3014C939E838D8389012FEFC21AE9
:102EF000D20A03CFB401A30135CFC3010E946433CA
:102F000048CFD8016D907D908D909C900C5F1F4FA5
:102F100055CF1A2FD7011C938091010211968C93E3
:102F20006DEF610FC7010E94A223E10EF11CF701B2
:102F3000339790833196808331968EE78083A52DD9
:102F4000A10FA09393038091C10080628093C10080
:102F500087CEC501C0CFED81FE8195CFD8014D91BF
:102F60005C913A01550F880899080E5F1F4F26CFD4
:102F70000D811E810E191F0913E0100FCBCF809118
:102F80004002909141029F938F9321E0309127025C
:102F9000311101C020E01F922F93209145022F9301
:102FA000209144022F93209143022F9320914202BB
:102FB0002F9321E0892B09F420E01F922F9381EEBB
:102FC0009FE09F938F930E94DA158DB79EB70C9662
:102FD0000FB6F8949EBF0FBE8DBF0895CF92DF92BB
:102FE000EF92FF920F931F930E948C239F938F93D6
:102FF0007F936F9301E010E020E030E0C0904A0240
:10300000D0904B02E0904C02F0904D026C157D0583
:103010008E059F0518F000E010E0980180914602AF
:1030200090914702A0914802B0914902800F911FF0
:10303000A21FB31FBF93AF939F938F938BEE9FE01D
:103040009F938F930E94DA158DB79EB70A960FB69D
:10305000F8949EBF0FBE8DBF1F910F91FF90EF9010
:10306000DF90CF9008950E948C239F938F937F933E
:103070006F9386EE9FE09F938F930E94DA150F90D7
:103080000F900F900F900F900F9008950F931F9334
:10309000CF93DF938C018091400290914102892B64
:1030A00009F04BC060913F0270E0623071052CF472
:1030B00082E080933F0262E070E0E0913B02F09199
:1030C0003C024DB75EB741505F4F44275A959F0170
:1030D000C0E0D0E0C901860F971F4817590730F1AB
:1030E00021969C01C115A4E0DA07A1F78E1B9F0B66
:1030F0000E94B715D0934102C093400290933E02C4
:1031000080933D020E94DD26F80180819181A28199
:10311000B3818093420290934302A0934402B09300
:103120004502DF91CF911F910F910895209711F0E3
:10313000C901DCCF80E10E947B328DE00E947B32AE
:103140008F929F92AF92BF92FF920F931F93CF9354
:10315000DF938C0161E379E1FC0180810E94C52647
:10316000EC010E94C82F8F8D98A1892B09F058C0BF
:10317000F80104811BA1FF24F394002339F16C8929
:103180007D898E894F2D0E94351B21E001111CC0C5
:1031900014FB882780F991E08927281741F08F894F
:1031A000988DA98DBA8D892B8A2B8B2B89F4107160
:1031B0001F291BA3DF91CF911F910F91FF90BF900B
:1031C000AF909F908F90089520E0E2CFF12CD7CF61
:1031D0000E948C238F88988CA98CBA8CDC01CB013F
:1031E000880D991DAA1DBB1D888B998BAA8BBB8B43
:1031F0008C839D83AE83BF8382EF91E19B838A831F
:10320000107114601F291BA3CE01DF91CF911F9174
:103210000F91FF90BF90AF909F908F900C941A30B9
:1032200082E10E947B32CF93DF93EC0161E379E18D
:1032300088810E94C526F894FC01278D30A1232B9C
:1032400069F44C815D816E817F81FC01438F548FD5
:10325000658F768F7894DF91CF91089584E10E94F5
:103260007B32CF92DF92EF92CF93DF93EC0161E05C
:1032700088859985AA85BB85892B8A2B8B2B09F498
:1032800060E08C810E943A226B01E82E44E250E01B
:1032900061E379E188810E949F26FC01C48AD58A76
:1032A000E68A21E0488559856A857B85452B462B32
:1032B000472B09F420E04C855D856E857F85452B85
:1032C000462B472BB1F430E0232BFC0123A3488984
:1032D00059896A897B89478B508F618F728F6AE029
:1032E00070E04F96DF91CF91EF90DF90CF900C94EC
:1032F000272730E1E9CFCF92DF92EF92FF920F9331
:103300001F93CF93DF938C0161E379E1DC018C9112
:103310000E94C526EC010E94A315FC01D801149659
:10332000CD90DD90ED90FC901797C282D382E4821D
:10333000F58218964D915D916D917C911B97468316
:10334000578360877187F894118210828F8D98A1BE
:10335000892B81F0A9A1BAA1ED93FC93FAA3E9A36B
:103360007894DF91CF911F910F91FF90EF90DF90B4
:10337000CF900895FAA3E9A3F8A3EF8F8BA182FD64
:1033800025C0C88AD98AEA8AFB8A982F94609BA3B1
:1033900081FD10C0CE010E94C82FCC82DD82EE825A
:1033A000FF8282EF91E19B838A83CE010E941A30D3
:1033B0007894D7CF4C815D816E817F81872F4C15AA
:1033C0005D056E058F0987FFE5CFF2CF48895989E2
:1033D0006A897B89972F4C155D056E059F0997FFBC
:1033E000D0CF83E10E947B32CF92DF92EF92FF92A7
:1033F0006B017C0109C00E948C23292F6C157D056F
:103400008E052F0927FF09C08091BC0087FFF3CFED
:10341000FF90EF90DF90CF9008958EE20E947B3274
:1034200024EA2093BC000E94F4198091B90090E036
:10343000A0E0B0E080319105A105B10521F0089729
:10344000A105B10509F408958DE20E947B327F92B7
:103450008F929F92AF92BF92CF92DF92EF92FF92A4
:103460000F931F93CF93DF93782EC62F942EB52EF4
:10347000822E0E948C236B017C0120E8C20E28E37F
:10348000D21E21E0E21EF11CC701B6010E94101AF3
:103490007092BB0084E88093BC00C701B6010E9413
:1034A000F419AA24AA94AC0ECC23B1F0C92DDB2DBB
:1034B000B12C8FEFA81AB80AAC0EBD1E94E8992E55
:1034C00089918093BB009092BC00C701B6010E9415
:1034D000F419AC16BD06A1F7C701B6010E94101A77
:1034E000872D81608093BB0084E88093BC00C70176
:1034F000B6010E94F419DFEFD80D882009F15801B8
:10350000CD2F84EC982ECC2369F09092BC00C7019B
:10351000B6010E94F4198091BB00F50181935F010F
:10352000C15099F7F801ED0FF11DEF0184E8809388
:10353000BC00C701B6010E94F4198091BB008883CA
:1035400084E98093BC00DF91CF911F910F91FF9090
:10355000EF90DF90CF90BF90AF909F908F907F9033
:103560000895BF92CF92DF92EF92FF920F931F9335
:10357000CF93DF93D82FC62FB42E152F0E948C2304
:103580006B017C0120E8C20E28E3D21E21E0E21E7E
:10359000F11CC701B6010E94101AD093BB0084E849
:1035A0008093BC00C701B6010E94F4190FEF0C0F05
:1035B000CC23A9F0CB2DD12F10E00F5F1F4F0C0FA4
:1035C0001D1F84E8B82E89918093BB00B092BC0087
:1035D000C701B6010E94F419C017D107A1F784E909
:1035E0008093BC00DF91CF911F910F91FF90EF90DE
:1035F000DF90CF90BF9008958036A0F567FD32C070
:10360000E82FE695E695E695F0E0EE0FFF1FE8540B
:10361000F14FA591B491109729F1877021E030E026
:10362000A90102C0440F551F8A95E2F7CA014FB79E
:10363000F89412963C911297662381F0382B282F2C
:10364000209512963C93129711963C911197232343
:1036500011962C9311974FBFBD010895282F2095E7
:103660003223EFCF89E20E947B32FB012FB7F8941F
:103670009281411105C08095892382832FBF0895CF
:10368000892B82832FBF089580912702882329F0F8
:10369000823011F010922702089582E00E947B325E
:1036A00088E00E947B32CF92DF92EF92FF92FC0182
:1036B00040815181628173812481E4EBFEE0859138
:1036C0009591A591B491481759076A077B0770F542
:1036D0006A017B01C20ED11CE11CF11C8C159D05F9
:1036E000AE05BF0500F5841B90E09A0122503B4FC8
:1036F0003F932F939F938F937F936F935F934F93FA
:1037000085EF9FE09F938F930E94DA158DB79EB748
:103710000A960FB6F8949EBF0FBE8DBFFF90EF9034
:10372000DF90CF900895822F90E0DFCF80E090E08F
:10373000DCCF8EE00E947B32CF93DF93EC016A8D69
:10374000662309F453C0FC0150E031E020E0A38D72
:10375000B48D4C91958D942309F0532B2F5F330F2B
:1037600033962613F4CF2C85922F952729F08D853B
:10377000852780959823D9F4888D5D8787FD03C0C0
:10378000815070F1888F4C815D816E817F81888549
:103790009985AA85BB85840F951FA61FB71F8C83AB
:1037A0009D83AE83BF8381E0DF91CF910895982FF1
:1037B000909529238523822B8C879E859830E0F66F
:1037C00021E0290F2E87FE01E90FF11D8787109256
:1037D000260281E080934E028FEF888F5D87D3CFE2
:1037E0001092260291E090934E02CCCF50E0BBCFD6
:1037F000AF92BF92DF92EF92FF920F931F93CF93FE
:10380000DF93FC01A485B585968547855089E188BD
:1038100022893389F488A588B6887789008D118D2F
:10382000D28C808586279C9384FD20C085FD22C094
:1038300086FD24C087FD26C09C93862F8295807FBD
:10384000808768279C9364FD2AC065FD25C066FDBE
:103850001CC067FD1EC09C93DF91CF911F910F91FB
:10386000FF90EF90DF90BF90AF900895EA01E8825B
:1038700085FFDECFE901F88286FFDCCFE5017883A2
:1038800087FFDACFE801D882D7CFF501708367FFD1
:10389000E2CFE801D882DFCFE901F882D8CFFA0180
:1038A000E082D3CF0F931F93CF93DF938C016EE70A
:1038B0007CE1DC018C910E94C526FC01D8011496A4
:1038C0009C91828D9817B8F4292F30E0E901CC0F34
:1038D000DD1F2C0F3D1FEF01C20FD31FF8016485C0
:1038E00080850E94FC1A6B8F7C8F8D8FDF91CF912A
:1038F0001F910F91089583E20E947B32CF93FC01C8
:10390000C481C930B8F44C2F50E09A01220F331F04
:10391000420F531F455E5F4F6EE77CE1FC018081E3
:103920000E949F26FC01C28F2CE93BE13383228356
:10393000CF91089584E20E947B325F926F927F92D2
:103940008F929F92AF92BF92CF92DF92EF92FF92AF
:103950000F931F93CF93DF938C01FC01C080D18024
:10396000E280F38084809580A680B78066246A9484
:10397000660E662301F1EA01712CFFEF6F1A7F0AD0
:10398000640E751E59900E948C23DC01CB018C19AA
:103990009D09AE09BF0988159905AA05BB0598F3CD
:1039A000652DC8010E94F81B0E948C236B017C01CD
:1039B000C615D70539F7F801C082D182E282F382B9
:1039C000DF91CF911F910F91FF90EF90DF90CF90FB
:1039D000BF90AF909F908F907F906F905F90089571
:1039E0000F931F93CF93DF93EC0168E27DE1888111
:1039F0000E94C5268C01FC0161857285838541E0AA
:103A00000E94351B488559856C81C801DF91CF9193
:103A10001F910F910C949D1C0F931F93CF93DF93D5
:103A2000EC0168E27DE188810E94C5268C01FC01E1
:103A300061857285838540E00E94351B48855985E4
:103A40006C81C801DF91CF911F910F910C949D1C47
:103A5000CF92DF92EF92FF920F931F93CF93DF935A
:103A6000EC014BE150E068E27DE188810E949F26F5
:103A70008C0160E08C810E943A22F8016187728794
:103A8000838760E088850E943A22F8016487758701
:103A9000868760E08C850E943A22F8016787708BE8
:103AA000818B60E088890E943A22F801628B738BD7
:103AB000848B60E08C890E943A22F801658B768BBA
:103AC000878B60E0888D0E943A22F801608F718FA9
:103AD000828FF8940E948C236B017C0160E0C80106
:103AE0000E94F81B0E948C237894DC01CB018C1976
:103AF0009D09AE09BF09CC8CDD8CEE8CFF8C8C153A
:103B00009D05AE05BF0548F4C81AD90AEA0AFB0AA2
:103B1000F801C482D582E682F782DF91CF911F91AE
:103B20000F91FF90EF90DF90CF9008954F925F92AA
:103B30006F927F928F929F92AF92BF92CF92DF92BD
:103B4000EF92FF920F931F93CF93DF938C01562E2A
:103B50003A01FC0180809180A280B380C480D5802E
:103B6000E680F780EA012196FA014080642D607FAB
:103B70000E94352D0E948C23DC01CB018819990904
:103B8000AA09BB098C159D05AE05BF0598F3642DE8
:103B90006295607FC8010E94352D0E948C236B01C5
:103BA0007C01F80180849184A284B384F1E05F16E3
:103BB00039F15A945A94852D90E00296680E791E38
:103BC0005990652D607FC8010E94352D0E948C237D
:103BD000DC01CB018C199D09AE09BF098815990537
:103BE000AA05BB0598F3652D6295607FC8010E9408
:103BF000352D0E948C236B017C01C615D70501F77A
:103C0000F801C082D182E282F382DF91CF911F91CD
:103C10000F91FF90EF90DF90CF90BF90AF909F906B
:103C20008F907F906F905F904F900895CF92DF922A
:103C3000EF92FF92CF93DF93FC01A085B18582853F
:103C40008C93968581E089278687C82FC170C688A6
:103C5000D788E08CF18C97859F5FD1899D1708F0FC
:103C60005FC0892F869586958695DF01A80FB11DC7
:103C70005A962C9130E0892F877002C03595279590
:103C80008A95E2F72170B701A601C217A9F033C0E7
:103C9000892F869586958695DF01A80FB11D5A96C6
:103CA0002C9130E0892F877002C0359527958A9531
:103CB000E2F72170C2131FC04C0D5D1D6E1D7F1DEC
:103CC0009F5F9D1728F381E191E293838283848132
:103CD0009581A681B781480F591F6A1F7B1F4483B6
:103CE00055836683778381E0DF91CF91FF90EF90DA
:103CF000DF90CF900895978784819581A681B781C1
:103D0000480F591F6A1F7B1F44835583668377833F
:103D100081E0DF91CF91FF90EF90DF90CF900895F9
:103D2000B701A601D0CFCF92DF92EF92FF920F930F
:103D30001F93CF93DF93EC01E885F9858A85808313
:103D40000E948C233E8521E023272E872F852F5F1D
:103D50002F87213009F45CC02530E0F40C811D81EF
:103D60002E813F814A895B896C897D89DB01CA018B
:103D7000800F911FA21FB31F8C839D83AE83BF83CF
:103D800081E0DF91CF911F910F91FF90EF90DF9035
:103D9000CF900895CC80DD80EE80FF80AB01BC0128
:103DA0004C195D096E097F098E899F89A88DB98D8F
:103DB000481B590B6A0B7B0BDB01CA010296A11D44
:103DC000B11DB7FD34C0B595A79597958795B59565
:103DD000A795979587950A891B892C893D89800F1E
:103DE000911FA21FB31F8E8B9F8BA88FB98F26E1C7
:103DF0003EE13B832A834C0D5D1D6E1D7F1D840FAC
:103E0000951FA61FB71F8C839D83AE83BF83B8CF3A
:103E10000C811D812E813F81AB01BC01401B510BE8
:103E2000620B730B4E8B5F8B688F798F9BCFDB019F
:103E3000CA010596A11DB11DC6CFEF92FF920F9347
:103E40001F93CF93DF937C016EEB7FE1FC018081B8
:103E50000E94C526EC011E8511FF07C0DF91CF919E
:103E60001F910F91FF90EF900895F70104816085F5
:103E70007185F4840B3008F045C0FAE0FF1508F4B2
:103E800041C0402F50E04A960E947A331F8611733A
:103E900012601E87802F880F880F880F898BFF0C78
:103EA000FF0CFF0CF88A002349F08A8D8F738A3249
:103EB00029F483E99EE19B838A830CC08A899B89CC
:103EC000AC89BD898E8B9F8BA88FB98F86E19EE1CF
:103ED0009B838A83F8940E948C23DC01CB01805859
:103EE000934FAF4FBF4F8C839D83AE83BF83CE0173
:103EF0000E941A307894DF91CF911F910F91FF901B
:103F0000EF90089585E20E947B320F931F93CF9329
:103F1000DF938C016EE77CE1DC018C910E94C52669
:103F2000EC01D8011496EC918F898E0F8F8BF89449
:103F30008E85E817D0F48E1BF0E03F96EC0FFD1F46
:103F4000DE011F962FEF280F30E0205F3F4F2C0F30
:103F50003D1F91919D93A217B307D9F78E8778944F
:103F6000DF91CF911F910F9108951E868EEF888F5C
:103F70007894DF91CF911F910F9108957F928F9246
:103F80009F92AF92BF92CF92DF92EF92FF920F93E8
:103F90001F93CF93DF93EC0144E250E06EEB7FE19F
:103FA00088810E949F268C0178848C809D80AE80C1
:103FB000BF80CC84DD84EE84FF8461E0711001C099
:103FC00060E0882D0E94FC1AF8016387748785875A
:103FD00061E08C2D0E943A22F80160877187828708
:103FE00088899989AA89BB89828B938BA48BB58B8D
:103FF000711018C091E08C149D04AE04BF04C1F090
:1040000080E0892BF8018687DF91CF911F910F9176
:10401000FF90EF90DF90CF90BF90AF909F908F90E8
:104020007F90089591E18C149D04AE04BF0441F784
:1040300080E2E7CF0F931F93CF93DF938C016EE75E
:104040007CE1FC0180810E94C526EC010E94C82F02
:10405000F80184819581A681B7818C839D83AE838D
:10406000BF834085518562857385488759876A87F4
:104070007B8780898D878C871E861F8A8EEF888F2D
:104080008485898F87FD10C0452B462B472B29F44B
:10409000DF91CF911F910F910895CE01DF91CF91C4
:1040A0001F910F910C941A3082E20E947B32CF93C1
:1040B000DF93EC018E8585FD0DC0688579858A8545
:1040C00041E00E94351B8E85807381608E87DF9171
:1040D000CF910895E885F9858A852FB7F894928164
:1040E000982B92839181892B81832FBF8E8580733A
:1040F00081608E87DF91CF910895CF93DF93FC018C
:10410000A385B4855C918785982F977021E030E076
:1041100001C0220F9A95EAF7982F96959695969555
:10412000DF01A90FB11D5A969C915A9745854523E9
:10413000E1F0292B5A962C938F5F90898917E8F428
:104140008787448155816681778186899789A08D8B
:10415000B18D840F951FA61FB71F84839583A683F7
:10416000B78381E0DF91CF910895209529235A9656
:104170002C938F5F9089891718F3EF01CF010E946C
:1041800057208E8588608E871092260281E080936A
:104190004F0280E0DF91CF910895CF93DF93FC0130
:1041A000A385B4859C9185858923E9F08685846003
:1041B0008687878591E0980F9787803408F544813A
:1041C00055816681778186899789A08DB18D840F0D
:1041D000951FA61FB71F84839583A683B78381E0AD
:1041E000DF91CF910895868582FFE3CF17868DE713
:1041F00090E293838283CF01DF91CF910C947D2055
:10420000EF01108ACF010E9457208E8588608E872B
:104210001092260281E080934F0280E0DF91CF91DF
:1042200008950F931F93CF93FC01C089CC23E9F12C
:10423000868585FD23C017868DEC90E2938382836B
:1042400086899789A08DB18D880F991FAA1FBB1FE2
:10425000880F991FAA1FBB1F4481558166817781F2
:10426000840F951FA61FB71F84839583A683B783EA
:10427000C1E08C2FCF911F910F910895A385B48534
:1042800095852FB7F89484FF21C012968C911297D0
:10429000892B909512968C93129711968C91119769
:1042A000982311969C932FBFC6CF8C010E94572054
:1042B000F8018685886086871092260281E08093C7
:1042C0004F028C2FCF911F910F91089512968C91D0
:1042D000129790958923DECFB0990FC0809151023B
:1042E000909152020196109207021092060290934A
:1042F00009028093080281E0089581E086BB8091E5
:104300005102909152020196909352028093510271
:1043100020E030E8309307022093060290930902D0
:104320008093080281E00895CF93DF93FC0184819C
:104330009581A681B7814489558966897789C58D1C
:10434000D68D3881C42FC170278D232331E009F425
:1043500030E0C31761F04F5F5F4F6F4F7F4F448B6B
:10436000558B668B778B808F918FA28FB38F40890F
:10437000518962897389272F481759076A072B0BC0
:1043800027FF18C0248D2160248F448555856685BC
:104390007785840F951FA61FB71F808B918BA28BEB
:1043A000B38B1092260281E0809350028481958124
:1043B000A681B7814085518562857385840F951FDD
:1043C000A61FB71F84839583A683B78381E0DF91FF
:1043D000CF9108950F931F93CF93DF938C016CE1DE
:1043E00072E2FC0180810E94C526EC010E94C82F68
:1043F000F80184819581A681B7818C839D83AE83EA
:10440000BF834085518562857385488759876A8750
:104410007B8744855585668577854C875D876E8764
:104420007F87888B998BAA8BBB8BCE01DF91CF9135
:104430001F910F910C941A300F931F93CF93DF931A
:10444000EC0140E250E06CE172E288810E949F261C
:104450008C0168858C810E94FC1AF801658F768F2B
:10446000878F84E991E293838283DF91CF911F91BB
:104470000F910895803678F5E82FE695E695E69554
:10448000F0E0EE0FFF1FE854F14FA591B4911097A3
:1044900011F1877021E030E0A90102C0440F551FDF
:1044A0008A95E2F7CA013FB7F89412962C911297B9
:1044B00061110FC04095242312962C9312971196E8
:1044C0002C911197282B11962C9311973FBFBD016A
:1044D0000895242BF1CF8AE20E947B321F920F9223
:1044E0000FB60F9211240BB60F92EF92FF920F931B
:1044F0001F932F933F934F935F936F937F938F936C
:104500009F93AF93BF93CF93DF93EF93FF930DC030
:104510007A0180918400909185008E199F0997FD02
:104520007CC07894B2999AC0F894C0912202D0913C
:104530002302EA81FB81309709F0ADC0EA8DFB8D43
:104540002C8D20838E859F85019709F4C1C09F879C
:104550008E8788859985AA85BB854C815D816E8112
:104560007F81480F591F6A1F7B1F4C835D836E83B9
:104570007F8320832CA525FF0EC00C851D85012E71
:10458000000C220B330B800F911FA21FB31F8887D3
:104590009987AA87BB87E881F981048115812681E3
:1045A0003781872F401751076207830B87FDB0CFF4
:1045B0007801F0932302E0932202A0912402B091AB
:1045C000250214960D911D912D913C911797872FDF
:1045D000401751076207830B87FFFD01DF01019040
:1045E000F081E02D0481158126813781872F4017C6
:1045F00051076207830B87FFF1CFF983E883CD93DF
:10460000DC93D0932502C093240280918400909182
:1046100085008E199F0997FF84CF863A9F4F0CF033
:104620006AC0F0928900E0928800FF91EF91DF91DB
:10463000CF91BF91AF919F918F917F916F915F913A
:104640004F913F912F911F910F91FF90EF900F90FD
:104650000BBE0F900FBE0F901F901895F89480918D
:104660008400909185009701281B390B2038314C2C
:10467000DCF12091260227FF43C09C01205C304ED4
:1046800030938B0020938A0024E026BB909389000E
:10469000809388003ECFCE0119954C815D816E815B
:1046A0007F81811178CFE881F981E480F580F093F2
:1046B0002302E09322028091240290912502C817E0
:1046C000D90709F026CFF0932502E093240221CFE9
:1046D000CE010E94CF2AEA8DFB8D9C8D90834C8168
:1046E0005D816E817F81DDCF209127022111C1CFB5
:1046F00088E20E947B327894B299B0CFF89409CFC7
:104700009C012854344F30938B0020938A0024E07E
:1047100026BB7C01F39485CF2FB7F8946091840079
:10472000709185008091510290915202B09902C01F
:104730002FBF08952FBF7F3FE1F30196089578942E
:104740000E9498302FEF260F6623C1F0FC018FEFF7
:104750009FEF31918327082E8295807F8025092E37
:10476000982F82958F700826869598278927880F1D
:10477000880F880F8025215060F708958FEF9FEFF5
:1047800008951F93CF93DF93EC01162FAC89BD8959
:104790001097B9F01296ED91FC9113978D919C9121
:1047A00011979D8B8C8B11961C921E9213961C92C6
:1047B0001E921297612FCD011995AC89BD89109772
:1047C00049F71092260281E080935302DF91CF9146
:1047D0001F910895FC013897968990FF08C0608D5D
:1047E000678B9A7F9460968BCF010E94C12380E0F3
:1047F0000895FC0186898460868B1092260281E0F0
:1048000080935302448155816681778180899189A3
:10481000A289B389840F951FA61FB71F8483958330
:10482000A683B78381E00895FC01A085B1859C91A2
:1048300082858923D1F0818D80958170C9F4838D23
:10484000815031F1838F44815581668177818785DD
:104850009089A189B289840F951FA61FB71F8483F1
:104860009583A683B78381E00895818D817039F3A4
:1048700080E198E29383828383899489A589B689AC
:1048800084839583A683B783828D838F81E0089587
:10489000A789B08D56969C915697892F817090FF6D
:1048A000E3CF648D57966C9357979A7F9460569692
:1048B0009C935697CD010E94C12380E00895FC018E
:1048C00080917A0086FF0EC084819581A681B78190
:1048D0008853984FAF4FBF4F84839583A683B78388
:1048E00081E00895828D90910002981781F09F3F9A
:1048F00059F780930002982F987090937B008770EF
:10490000806480937C0087ED80937A00DDCF8FEF09
:10491000809300022091780030917900858D968DEA
:10492000891780F544895589240F351F8F5F358B92
:10493000248B858F891760F1868997892817390715
:10494000C8F1808D918D82179307A0F1138E10927C
:10495000260281E0809354024089518962897389DB
:1049600080859185A285B385840F951FA61FB71FEB
:10497000808B918BA28BB38B84839583A683B78323
:1049800081E0089581E0358B248B858F8917A0F60F
:10499000448155816681778184859585A685B78513
:1049A000840F951FA61FB71F84839583A683B783A3
:1049B00081E00895838D8F5F838F948D891738F2FE
:1049C000809127028111C2CF8AE10E947B32EF924F
:1049D000FF921F93CF93DF937C01FC0110816EE562
:1049E00075E2812F0E94C526EC01F8948E8980FF24
:1049F00009C0F70164816F8B8A7F84608E8BCE0142
:104A00000E94C123CE010E94C82FCE0108960E94A9
:104A1000C82F1E8A8F8978941F921F921F921F920F
:104A20001F928F931F921F921F921F9388EC9FE0FB
:104A30009F938F930E94DA158DB79EB70C960FB691
:104A4000F8949EBF0FBE8DBFDF91CF911F91FF9055
:104A5000EF900895CF93FC01C08164EF75E28C2F35
:104A60000E94C526FC01F894818D338944895589BB
:104A700066897894A085B1852C919285922321E056
:104A800009F420E01F922F936F935F934F933F930E
:104A9000869581701F928F931F92CF938DEC9FE02C
:104AA0009F938F930E94DA158DB79EB70C960FB621
:104AB000F8949EBF0FBE8DBFCF91089549E150E09D
:104AC0006EE575E2FC0180810E949F2629EF33E2AA
:104AD000FC01338322832AEE33E233872287089551
:104AE000EF92FF920F931F93CF93DF938C016EE5AC
:104AF00075E2FC0180810E94C526EC01F8948E8944
:104B000080FF13C07E01F8E0EF0EF11CC7010E9488
:104B1000C82FF80184819581A681B7818C879D87F4
:104B2000AE87BF87C7010E941A307894DF91CF917A
:104B30001F910F91FF90EF9008950F931F93CF93C4
:104B4000DF938C0164EF75E2FC0180810E94C52631
:104B5000EC010E94C82FF80184819581A681B7815C
:104B60008C839D83AE83BF8380859185A285B38529
:104B70008F87988BA98BBA8B84858A8F882361F164
:104B8000F80140895189628973894B875C876D87F9
:104B90007E8720E138E23B832A838B8F8489958945
:104BA000A689B789892B8A2B8B2BA1F482E0898F68
:104BB0006EE575E2F801808D0E94C526988F8F8B77
:104BC000F801848D8C8FCE01DF91CF911F910F91D1
:104BD0000C941A3083E0EBCF188E1F8A198EDF9168
:104BE000CF911F910F9108950F931F93CF93DF9350
:104BF000EC014DE150E064EF75E288810E949F2650
:104C00008C0168858C810E94FC1AF801608771878D
:104C10008287DF91CF911F910F910895CF93DF93FA
:104C2000EC010E94C82FCE0108960E94C82FEC8983
:104C3000FD89309751F09081818113821282118217
:104C40001082E92FF82F3097B1F71D8A1C8A188E31
:104C50001F8A1E8ADF91CF9108950F931F93CF93E0
:104C6000DF938C016EE575E2FC0180810E94C52610
:104C7000EC01F8940E940E2681E08E8BF80184816D
:104C80009581A681B7818C839D83AE83BF83808508
:104C90009185A285B385888B998BAA8BBB8B892B39
:104CA0008A2B8B2B19F0CE010E941A30F8018485D3
:104CB000888F7894DF91CF911F910F910895CF93B2
:104CC0002091560230915702232B91F4FC01C081B0
:104CD0008C2F90E0880F991F880F991F0E94B7159D
:104CE0009093570280935602C0935502CF91089536
:104CF0008AE00E947B32CF93DF93EC019881409150
:104D00005502A0915602B09157020BC0FD0184E0FC
:104D1000989FE00DF11D112420813181261737075E
:104D200041F09F5F941790F380E090E0DF91CF9186
:104D30000895988382819381DF91CF910895CF93D5
:104D4000DF93909155028917E8F4C0915602D091F3
:104D5000570294E0899FC00DD11D1124888199814B
:104D6000892B81F48091400290914102892B51F46A
:104D700079836883CA010E94B7159B838A83DF9178
:104D8000CF9108958BE00E947B3290915502891754
:104D900088F4E0915602F091570294E0899FE00D6B
:104DA000F11D1124808191818617970719F4828162
:104DB000938108958CE00E947B32CF92DF92EF9234
:104DC000FF92CF93DF93C0914002D0914102209790
:104DD000B9F121976E01E12CF12CA0913F02B0E0D6
:104DE0002097D9F020E030E040E050E0BA01809117
:104DF0003D0290913E02FC01E20FF31F4F5F5F4FB7
:104E00006F4F7F4F2A0F3B1F820F931F9183808329
:104E10004C155D056E057F0550F380913D02909124
:104E20003E02CA9FF001CB9FF00DDA9FF00D1124D6
:104E3000E80FF91F11821082909339028093380293
:104E4000DF91CF91FF90EF90DF90CF900895FC011C
:104E500013821282118210826F3F710509F07CF477
:104E60008091400290914102892B49F480913F0248
:104E700090E08617970714F460933F0208950E940C
:104E8000991BCF92DF92EF92FF921F93CF93DF9304
:104E90006A017B0160ED7EE0FB019491981749F077
:104EA000675F7F4FFFE060367F07B1F782E30E94C4
:104EB0007B32FB013896949191FF1AC030EAC316F9
:104EC0003FE5D306E104F10408F483C0C0E8CC1642
:104ED000CEE7DC06C1E0EC06F10408F090C0D0E4B7
:104EE000CD16DFEBDD06E104F104C8F414E022C0C6
:104EF000F8EBCF16F7E4DF06E104F10490F0A0EC44
:104F0000CA16AEE3DA06A1E0EA06F10408F475C0B9
:104F1000C114BBEFDB06B4E0EB06F10438F315E097
:104F200009C037EFC31638E0D306E104F10408F0F6
:104F30005FC011E0FB013396A591B491FB0135965A
:104F4000C591D491FB0137963491E82FE695E6950B
:104F5000E695F0E0EE0FFF1FE854F14F45915491B4
:104F60008770E1E0F0E07F0101C0EE0C8A95EAF77E
:104F7000FB013196C590D490892F8170A038B1057E
:104F800009F44BC0EFB7F8949881977011F019139A
:104F900041C0188381112EC09FB7F894622F70E032
:104FA000E601798368839FBF9C913160392B3C93E4
:104FB000DA0111969C911197E92A1196EC92EFBFB4
:104FC000B601DF91CF911F91FF90EF90DF90CF90CE
:104FD0000895A8EDCA16A7E2DA06E104F10468F420
:104FE000B7EFCB16B8E0DB06E104F10408F4A1CF7B
:104FF00012E0A0CFE6012883D7CF13E09BCFC114E6
:10500000EBEFDE06E4E0EE06F10410F416E092CFDA
:1050100017E090CF80E30E947B3281E30E947B32D5
:105020000F931F93FC01A085B1859C91048115818C
:10503000268137814385548565857685400F511FCC
:10504000621F731F8285892361F0818D8095817035
:1050500059F0448355836683778381E01F910F91D4
:105060000895818D8170A9F7438B548B658B768B66
:1050700084E194E293838283CF011F910F910C947A
:105080001424CF93DF93EC0169E77AE288810E94D0
:10509000C526FC018C819D81AE81BF81892B8A2B25
:1050A0008B2B51F420E0F89494A59D7F922B94A72C
:1050B0007894DF91CF91089522E0F5CF0F931F935D
:1050C000CF93DF938C01EC01A897CE010E94C82FEB
:1050D0001C821D821E821F821A8A1B8A1C8A1D8ABC
:1050E00088A199A1AAA1BBA12CA54E855F8568893D
:1050F000798924FD04C07695679557954795841B5B
:10510000950BA60BB70BB7FD40C0B095A095909539
:1051100081959F4FAF4FBF4F88A399A3AAA3BBA36D
:105120001E861F86188A198A247128602CA76D8D07
:105130007E8D8F8D40E00E94351B4CA544706A8D9A
:105140007B8D8C8D0E94351BD8011497ED91FC91BD
:1051500011973097A9F0409138029091390201C01F
:10516000F9012081318140839183F0933902E093EA
:1051700038024E2F9F2F2115310591F71D921C9259
:10518000DF91CF911F910F910895B095A0959095C3
:1051900081959F4FAF4FBF4FB8CF0F931F93CF93C2
:1051A000DF938C0169E77AE2FC0180810E94C526C9
:1051B000EC016EE575E2F80184810E94C526BE010E
:1051C000685D7F4F4FB7F8942AA53BA5232B89F440
:1051D0002EE538E23BA72AA7FC012489358939A7A7
:1051E00028A7758B648B4FBFDF91CF911F910F91D3
:1051F000089589E10E947B32CF93DF93EC0169E748
:105200007AE288810E94C526FC018C819D81AE8155
:10521000BF81F8944685578560897189452B462B57
:10522000472B79F484839583A683B783828B938BF2
:10523000A48BB58B84A5877F84A77894DF91CF91C9
:10524000089586E10E947B32CF93FC01C08169E71B
:105250007AE28C2F0E94C526FC01F89480A191A1CE
:10526000A2A1B3A124A5468557856089718924FD33
:1052700004C07695679557954795841B950BA60BAB
:10528000B70BB7FF07C0B095A095909581959F4F3C
:10529000AF4FBF4F7894B054BF93AF939F938F930A
:1052A0001F92CF9382ED9FE09F938F930E94DA1518
:1052B0008DB79EB708960FB6F8949EBF0FBE8DBFF0
:1052C000CF9108954F925F926F927F92BF92CF924B
:1052D000DF92EF92FF920F931F93CF93DF93FC0126
:1052E000B08067E37AE28B2D0E94C526EC014D80E9
:1052F0005E806F807884C984DA84EB84FC840E94A9
:105300008C23DC01CB0184199509A609B7098C15FA
:105310009D05AE05BF0568F40E948C23DC01CB011E
:1053200084199509A609B7098C159D05AE05BF0519
:1053300098F3CD84DE84688179818A81A09184008C
:10534000B09185000B811C819E01215F3F4F790147
:10535000C20ED31ECE14DF0409F457C0F701919199
:105360007F0128E013C0F89440918400509185009B
:10537000FB01808380837894FA01EA1BFB0BE01722
:10538000F107D8F4990FDA01215021F397FFEBCF01
:10539000F8944091840050918500FB0180837894BB
:1053A000FA01EA1BFB0BE017F10738F4990FF894A8
:1053B000FB0180837894DA01E7CF40E00E94351B3F
:1053C0000E948C236D837E838F83988780E01F9259
:1053D0008F931F92BF928BE99FE09F938F930E94C0
:1053E000DA150F900F900F900F900F900F90DF91A4
:1053F000CF911F910F91FF90EF90DF90CF90BF90D2
:105400007F906F905F904F9008950E948C236D83E2
:105410007E838F83988781E0DACF0F931F93CF939A
:10542000DF93EC0167E37AE288810E94C5260C8154
:105430001D812E813F8148856C857D8517FD14C0B7
:1054400050E0DA01A00FB11FEC01ED85FE85EA17EF
:10545000FB0750F0015F1F4F800F911FDF91CF912D
:105460001F910F910C947A3386E20E947B326F92E7
:105470007F928F92CF92DF92EF92FF92CF93DF9342
:10548000EC0160E08C810E943A223B01882EC884A6
:10549000D984EA84FB84D7FC24C0A601415F5F4F16
:1054A00067E37AE288810E949F26FC016082718214
:1054B0008282D686C5868C859D85948383838889E0
:1054C0009989AA89BB8981879287A387B487DF914D
:1054D000CF91FF90EF90DF90CF908F907F906F9063
:1054E000089587E20E947B32FC01648180810C94E4
:1054F0003A220F931F93CF93DF938C014DE250E03C
:1055000069E77AE2FC0180810E949F26EC01F801A4
:10551000848518160CF041C064E06CA7F801848102
:105520000E943A226A8F7B8F8C8F60E0F801808521
:105530000E943A226D8F7E8F8F8F80E090E0A0E0F6
:10554000B0EC88A399A3AAA3BBA3F8018089918991
:10555000A289B3898E8B9F8BA88FB98F6BE070E087
:10556000CE0184960E9427278E899F89A88DB98DA8
:105570008997A105B10548F08CE09CE29B838A8362
:10558000DF91CF911F910F9108958CA580618CA719
:10559000DF91CF911F910F91089560E0BECFCF9220
:1055A000DF92EF92FF92CF93DF93FC01A4A1B5A10C
:1055B000109761F416861786108A118A80E0DF91B1
:1055C000CF91FF90EF90DF90CF9008958D919C91B7
:1055D000119795A384A316968D919C911797958703
:1055E00084871296CD90DD90ED90FC901597AC01DC
:1055F000092E000C660B770B4C0D5D1D6E1D7F1D7B
:10560000408751876287738724A524FD43C0428960
:10561000538964897589C40ED51EE61EF71EC28A99
:10562000D38AE48AF58AC482D582E682F782189604
:105630008D919C911997AC0160E070E0440F551F6B
:10564000661F771F46875787608B718B1A962C9140
:105650001A9720FD3FC040A151A162A173A1480F3C
:10566000591F611D711D40A351A362A373A38091B3
:1056700038029091390211969C938E93B09339021F
:10568000A093380281E0DF91CF91FF90EF90DF90FF
:10569000CF9008954481558166817781C40ED51ECF
:1056A000E61EF71EC482D582E682F782892B31F18D
:1056B000206224A718968D919C911997AC0160E007
:1056C00070E046875787608B718B1A962C911A97DA
:1056D00020FFC1CFAC0160E070E0C0A0D1A0E2A08B
:1056E000F3A04C195D096E097F0940A351A362A381
:1056F00073A3C58DD68D878D8883B9CF2F7DD9CFE4
:105700000F931F93CF93DF938C0169E77AE2DC015B
:105710008C910E94C526EC010E94A315FC01D801C2
:1057200014964D915D916D917C91179742835383AF
:105730006483758318968D919C91199791878087C2
:10574000892B09F466C0D8011C968D919C911D97F8
:10575000978386831286F8948CA5282F217081FB6D
:10576000992790F9291729F091E08927928591606E
:1057700092874E855F8568897989452B462B472B13
:1057800059F583FD19C08CA7118210828CA19DA1AF
:10579000892BA9F1AEA1BFA1ED93FC93FFA3EEA3CA
:1057A000CE010E94CF2ACE010E941A307894DF9158
:1057B000CF911F910F9108958091380290913902F5
:1057C00091838083F0933902E09338027894DF91DB
:1057D000CF911F910F9108958CA7118210828CA1F7
:1057E0009DA1892B89F0AEA1BFA1ED93FC93FFA3EE
:1057F000EEA37894DF91CF911F910F910895FFA3AD
:10580000EEA3FDA3ECA3CCCFFFA3EEA3FDA3ECA3DB
:10581000CDCF87E10E947B32CF92DF92EF92FF9251
:105820000F931F93CF93DF93EC01EA8DFB8D8C8D4B
:1058300080830E948C230E891F89288D398D6B01EE
:105840007C01C00ED11EE21EF31E8E859F85A889A5
:10585000B9890197A109B1098E879F87A88BB98B58
:1058600080FF0EC0CC82DD82EE82FF8281E0DF917C
:10587000CF911F910F91FF90EF90DF90CF900895FF
:10588000892B8A2B8B2B59F1488559856A857B8515
:105890008A899B89AC89BD89840F951FA61FB71F74
:1058A0008A8B9B8BAC8BBD8B0C851D85012E000CD0
:1058B000220B330B400F511F621F731F48875987FC
:1058C0006A877B872B2F8C159D05AE052F0927FD39
:1058D000C9CF8C839D83AE83BF8381E0C8CFCE01C7
:1058E0000E94CF2A811102C080E0C1CF4C815D812E
:1058F0006E817F81972F4C155D056E059F0997FF7F
:10590000B6CF4C195D096E097F094038514C6F4F75
:105910007F4F0CF0A7CF88E10E947B320F931F933B
:10592000CF93DF938C0146E450E06EE87CE2FC010B
:1059300080810E949F26EC018EEF9FE09B838A83EB
:105940006BE373E1F80184810E94C5269D878C87F3
:10595000DF91CF911F910F9108958F929F92AF92F7
:10596000BF92EF92FF920F931F93CF93DF931F92FB
:105970001F92CDB7DEB77C016EE87CE2FC0180812E
:105980000E94C5268C0189EB89831A820E948C2390
:105990004B015C019E012F5F3F4F42E061E0F80147
:1059A000848595850E9495140E948C23F801218995
:1059B0002F9320892F932A811F922F9323891F923F
:1059C0002F9327852F9326852F93DC01CB018819F0
:1059D0009909AA09BB09BF93AF939F938F93BF9275
:1059E000AF929F928F92F70180811F928F938FEADF
:1059F0009FE09F938F930E94DA150FB6F894DEBF55
:105A00000FBECDBF0F900F90DF91CF911F910F91DF
:105A1000FF90EF90BF90AF909F908F900895CF939D
:105A2000DF93EC0144969F938F938B891F928F9302
:105A30008F858F938E858F931F926F938AEA9FE055
:105A40009F938F930E94DA151B8A8E859F850196FE
:105A50009F878E878DB79EB70A960FB6F8949EBF24
:105A60000FBE8DBFDF91CF910895CF93DF93DC01FF
:105A70001C96ED91FC911D971E969C911E971F966A
:105A8000CD91DC91509751962C9188E005C0908380
:105A9000660F9083815049F067FFF9CF28836095A6
:105AA0009083660F90838150B9F7DF91CF9108956D
:105AB0000F931F93CF93DF93EC0167E77DE288811B
:105AC0000E94C5268C016AEF0E94352D6C81611100
:105AD00005C0DF91CF911F910F9108954885598599
